:020000040000fa
:10000000f01f0020196400005f4b0000c74c000087
:1000100000000000000000000000000000000000e0
:100020000000000000000000000000003349000054
:1000300000000000000000003349000033490000c8
:1000400033490000334900003349000033490000c0
:100050003349000033490000b17500003349000006
:10006000ad2500003349000033490000334900004a
:100070003349000033490000334900003349000090
:10008000334900008d6a0000334900000000000081
:1000900000000000334900003349000033490000ec
:1000a0003349000033490000334900003349000060
:020000040000fa
:1000b000f8b5c046f8bc08bc9e46704769630000ae
:1000c000f8b5c046f8bc08bc9e46704741630000c6
:020000040000fa
:0800d000b8420000010000002d
:020000040000fa
:1000d800f0b5ce4600b5a6b000231393149315933c
:1000e800169317931893002005f04efb00216948da
:1000f80007f0e2fa07f0a2f807f01af83c2102200c
:1001080003f04efa07f04ef907f0f8f807f0bcf9db
:1001180019ac614d26002b0007cb07c61a68326060
:100128009a88b2809b79b3710123220000210720ad
:1001380006f042ff2b001433220083cb83c21a88b7
:1001480032809b78b370012322001421002006f02e
:1001580033ff290024318422200007f06bf90123a2
:1001680022002021002006f027ff290038318422b0
:10017800200007f05ff9012322002c21002006f05f
:100188001bff290050318322200007f053f9012377
:1001980022003821002006f00fff05f0e7fc1e239f
:1001a8001c00642006f026fa06f0c2ff013ce4b207
:1001b800002cf6d1a1463de3384b1b78042b1ad806
:1001c80006f0b6ff2b78012bf6d10133344a1370b1
:1001d80007f0e8f819aa13002100c1c9c1c30868cb
:1001e80018600979197101231421002006f0e4fe32
:1001f80005f0bcfce0e70023284a1370139314931e
:10020800159316931793189364254b460493254e1c
:100218002f003be0c0214901052007f07bf806f0dc
:10022800e3ff07f083f80028fbd007f033fa2368d0
:100238009c46604401c40135edb2062d22d0052d3f
:10024800edd8ab00f3589f46c0214901042007f0c0
:1002580061f8e4e7c0214901002007f05bf8dee718
:10026800c0214901012007f055f8d8e7c02149010c
:10027800062007f04ff8d2e7c0214901072007f010
:1002880049f8cce7013fffb2002f0dd013ac049d15
:10029800d5e7c04611760000344900008a090020dd
:1002a8008b0900207c730000139806f061ff06f0ac
:1002b8005df9f44af44b02f03dfb0022f34b04f0e5
:1002c80013faf34af34b02f089f805f0e9fc06f05b
:1002d8004df904000d00149806f04aff06f046f99f
:1002e800ed4aee4b02f026fb0022e84b04f0fcf945
:1002f800eb4aec4b02f072f805f0d2fc06f036f946
:1003080006000f00e84ae94b2000290002f012fb22
:1003180004900591e64ae74b3000390002f00afbe9
:1003280002000b000498059902f058f805f0b8fc93
:100338000490159806f01cff06f018f9de4adf4b0a
:1003480002f0f8fa0022d14b04f0cef9dc4add4b7a
:1003580002f044f805f0a4fc06f008f908900991a9
:10036800169806f005ff06f001f9d74ad74b02f0b8
:10037800e1fa0022c54b04f0b7f9d54ad54b02f093
:100388002df805f08dfc06f0f1f80a900b911798fe
:1003980006f0eefe06f0eaf8cf4ad04b02f0cafab1
:1003a8000022ba4b04f0a0f9cd4ace4b02f016f861
:1003b80005f076fc06f0daf80c900d91189806f026
:1003c800d7fe06f0d3f8c84ac84b02f0b3fa0022a9
:1003d800ae4b04f089f9c64ac64b01f0ffff05f0a1
:1003e8005ffc06f0c3f80e900f91c34ac34b200080
:1003f800290002f09ffa06900791c14ac14b3000cc
:10040800390002f097fa02000b000698079901f0ec
:10041800e5ff06900791bc4abc4b0898099902f081
:1004280089fa02000b000698079901f0d7ff069099
:100438000791b74ab74b0a980b9902f07bfa02006a
:100448000b000698079907f0f7f806900791b24a4b
:10045800b24b0c980d9902f06dfa02000b00069849
:10046800079907f0e9f806900791ad4aad4b0e9849
:100478000f9902f05ffa02000b000698079901f045
:10048800adff05f00dfc0690a74aa84b20002900f7
:1004980002f050fa10901191a54aa64b300039008d
:1004a80002f048fa02000b001098119901f096ff2b
:1004b80010901191a04aa14b0898099902f03afab4
:1004c80002000b001098119901f088ff089009911b
:1004d8009b4a9c4b0a980b9902f02cfa02000b00dd
:1004e8000898099907f0a8f808900991964a974b37
:1004f8000c980d9902f01efa02000b000898099951
:1005080007f09af808900991914a924b0e980f9922
:1005180002f010fa02000b000898099901f05eff3a
:1005280005f0befb0890069a111c101c04f0b8fade
:100538000a90049b191c181c04f0b2fa011c0a98b2
:1005480002f0b3fc0a90089b191c181c04f0a8fac6
:10055800011c0a9802f0a9fc03f0a0fe0e90011cf1
:10056800049804f0f1fc0a900e99069804f0ecfc4b
:100578000c900e99089804f0e7fc0e900c9a111c48
:10058800101c04f08dfa10900a9b191c181c04f01a
:1005980087fa011c109802f088fc10900e9a111c22
:1005a800101c04f07dfa011c109802f07efc03f088
:1005b80075fe011c10900e9804f0c6fc03f006fab4
:1005c8000e900a990c9804f0bffc03f07df90a908c
:1005d80006f0e8fe344a604b2000290002f0aaf930
:1005e80004000d005d4a5e4b3000390002f0a2f9ac
:1005f80002000b002000290001f0f0fe05f050fb7e
:1006080005f0b4ff0022574b02f094f902000b00ea
:100618005549743119ac200006f00cff012319aac2
:100628000021002006f0c8fc049805f09fff002276
:100638004c4b02f07ff902000b004c4c210019ad25
:10064800280006f0f7fe012319aa0a21002006f067
:10065800b3fc069805f08aff0022424b02f06af9c3
:1006680002000b0021000c3119ad280006f0e2fe53
:10067800012319aa1421002006f09efc089805f011
:1006880075ff75e013e40e61bac1b53e000059402c
:100698001dc3052bc69bcf3ede5cadd7d249b43e09
:1006a80085aa45750d94733e091f56fb682402c040
:1006b8005f760539c75e01401be894b1d826b63e7f
:1006c800dca1f46cc0c6bb3e434be3041bfcb53e47
:1006d80008354e0da287c53e8902cecb60e3b53ef4
:1006e8003faf9419b455cc3e9bc1ae685c6cb43e28
:1006f800884a3e33b936a13eda80a63ca734a4bf67
:1007080037401c138b58a33fcf4871876e4d134059
:10071800270a87362db91340b3a8fec268b1ed3f4a
:1007280044e7de30d55fee3f575dfaeb1253b0bfba
:1007380057c986947c42af3f3ec7da76fa41da3f22
:100748002eef03058cd4da3fba431f0e5acb144060
:10075800e54369a680451540682402402a63d35eb4
:10076800efb2004000408f4034490000b449000017
:100778000022324b02f0def802000b002100183193
:1007880019ad280006f056fe012319aa1e210020e3
:1007980006f012fc25002435109805f0e7fe0090bd
:1007a80001917f22290019ab180006f043fe0123ae
:1007b80019aa1e21462006f0fffb30348125029538
:1007c8001f490e9804f06cf905f0d0fe1d4a1e4b27
:1007d80003f08aff05f064fa05f0c8fe0090019165
:1007e8007e22210019ab180006f024fe012319aa65
:1007f8002821462006f0e0fb029511490a9804f0ea
:100808004ff905f0b3fe0f4a0f4b03f06dff05f0eb
:1008180047fa05f0abfe009001918022210019a84b
:1008280006f008fe012319aa3221462006f0c4fb6f
:1008380005f09cf9054d064c6034c1e400408f403a
:1008480000003443182d4454fb2109408b09002033
:04085800344900001f
:020000040000fa
:10085c00f0b5de4657464e464546e0b585b0050038
:10086c004378002b00d1fae2836b002b00d1f6e227
:10087c00446aa38b9b0505d5238b9b0502d580234e
:10088c009b00a383a38bdb0505d5238bdb0502d54e
:10089c0080235b00a383a38b1b0604d5238b1b0631
:1008ac0001d58023a383a38b5b0604d5238b5b0626
:1008bc0001d54023a383a38b9b0604d5238b9b06d6
:1008cc0001d52023a383a38bdb070dd5238bdb075b
:1008dc000ad50123a383a3820f33a383238300228e
:1008ec000421686bab6b9847a38bdb060dd5238b70
:1008fc00db060ad51023a383a3820f3ba383238398
:10090c0000220321686bab6b9847a38b5b0709d55f
:10091c00238b5b0706d50423a38300220721686b76
:10092c00ab6b9847a38b1b0702d5238b1b0735d4c6
:10093c000823ff33e35cdb065dd50a23ff33e35c5e
:10094c00db0658d56e6cf37902229343f371f37b7b
:10095c009343f3733768002f47d0296d06323868fc
:10096c0006f0c2fd0823ff331022e254033b303261
:10097c00e2543a689179d3791b020b432ad1213383
:10098c000722ea5402233b7206337b60bb69336057
:10099c00fb68002b2fd0380098472ce02123002235
:1009ac00ea54237b1b079b0f974ad25c3023ea54f3
:1009bc00280050306022002106f0a0fdab6b002b0c
:1009cc0003d000220221686b98478023a372783be6
:1009dc00a383ade713787f2b03d821230222ea549b
:1009ec00d0e721230622ea54cce721230122ea5442
:1009fc00e7330f32e2540823ff33e35c9b0737d510
:100a0c000a23ff33e35c9b0732d56b6c9e68002e88
:100a1c002ed02122aa5c082a1ad0316a002971d161
:100a2c00327c51b200295ddb21220521a954002220
:100a3c003272b2699a60f368002b01d0300098478b
:100a4c000823ff330222e254033b3e32e2540fe010
:100a5c00002221216a543272b16999607260f36884
:100a6c00002b01d0300098470823ff330222e254b8
:100a7c000823ff33e35cdb0700d4a3e00a23ff3336
:100a8c00e35cdb0700d49de06b6c98462123eb5ca8
:100a9c00052b59d043461e68002e74d06f6dbf04d1
:100aac00bf0c306a73683a189a4201d91f1abfb248
:100abc00296d33689c4660443a0006f015fd336a94
:100acc00fb1833627268934264d241468988b942fa
:100adc0060d882235b004022e2540823ff333f3a64
:100aec00e2546fe07f231a4032746b6e9b0b9b03b6
:100afc006b660823ff330222e2540623ff337e3257
:100b0c00e254b5e79f89b94200d88fb2286e73685a
:100b1c00591a33689c4661443a0006f0e5fc336a86
:100b2c00db1b33626b6e9b0b9b036b666b6ebf04a4
:100b3c00bf0c1f436f660823ff330222e2540623c7
:100b4c00ff337e32e25493e743461868002813d0f3
:100b5c00002303722122ab540822ff320121a1543d
:100b6c00033a3f31a1544246816911604360c36826
:100b7c00002b27d0984725e021230422ea54e733a1
:100b8c00033ae2541ee021230322ea54e733023aeb
:100b9c00e25417e093429b415b42337221230722bc
:100bac00ea540823ff33063ae254033b3f32e25443
:100bbc004346b2691a60336a7360f368002b01d044
:100bcc003000984701260123984649e07f221340c4
:100bdc000374ef197b6e9b0b9b037b660823ff331f
:100bec00753a5146ca540623ff337632ca5434e060
:100bfc00019b5f01e7190937ff370a323a70082366
:100c0c00ff335146ca5428e01c7700009b899a4256
:100c1c0000d893b241688a1a01688c466244e9197b
:100c2c000a66026ad21a02624a6e920b92034a66f2
:100c3c004a6e9b049b0c13434b660823ff330a221a
:100c4c005146ca54019b5f01e7190a37ff3702234b
:100c5c003b700623ff337632ca540136032e72d012
:100c6c00238c9bb20196334141461942f5d0730156
:100c7c00e3180a33ff331b78dbb203937701e319d4
:100c8c009a460823ff335146cb5cdbb20293029b9e
:100c9c001b0712d5039b1b070fd5eb196a331b7867
:100cac009b070ad5eb196a331a7802218a431a700a
:100cbc000823ff3308225146ca54029b9b07ccd50c
:100ccc00039b9b07c9d52b004433b2009b589b4612
:100cdc0098680028c1d0026a002a97d1037c5ab2c6
:100cec00002a00da72e7002303725b4682699a607d
:100cfc00c368002b00d098475b469a68002a00d145
:100d0c0076e7106a9b89984200d883b25168081a1a
:100d1c0011688c466044ef193866116ac81a106263
:100d2c007a6e920b92037a667a6e9b049b0c134339
:100d3c007b660823ff330a225146ca540623ff332d
:100d4c007632ca5489e7023e0123984621e00023fb
:100d5c000372534682691a60036a4360c368002bae
:100d6c0000d0984753461b68002b6dd01a687f0142
:100d7c00eb191a6505230822ff3249468b54e719f3
:100d8c000a37ff373b70ff33c73aca540136032e7c
:100d9c0065d0238c9bb23700334142461a42f5d0c2
:100dac007301e3180a33ff331b78dbb2039373012f
:100dbc009946a1440823ff334a46d35cdbb2029325
:100dcc00029b5b0711d57301eb185a331b789b07f9
:100ddc0006d57301eb185a331a7802218a431a701c
:100dec000823ff3304224946ca54029b42461a4246
:100dfc00ccd0039b1a42c9d02b004433b2009b5871
:100e0c009a4618680028c1d07b01eb185b6d9b04d7
:100e1c009b0c026a9a18026241688a4297d2514628
:100e2c00898899420dd803689a187f01ef193a65a1
:100e3c000823ff3305224946ca54033b3b32ca54ac
:100e4c00a4e74346037284e77f01e7190937ff37ac
:100e5c0005223a700823ff334946ca5496e705b079
:0c0e6c003cbc90469946a246ab46f0bd47
:020000040000fa
:100e7800f0b59bb013930b6815900a938b680d918e
:100e88000b930b694d681893cb680293136808930a
:100e980053680898069300220023069905f069fc18
:100ea80000280dd10a9b5b073ad408200a9b03400f
:100eb80009930b9b0393099b002b0fd0202306e07b
:100ec800802212069446069b634406932d23029ab9
:100ed80013700b9b013b039301230993069b08990d
:100ee8005b005b08944a00291ed193421cd1029ce6
:100ef800139ba446099a413b624490491000192b60
:100f080010d806f0f1fb029806f058fa0a9b020086
:100f1800009302990b9b159804f082fb1bb0f0bd5f
:100f28002b23d4e70431ece7934203d810d1089b74
:100f3800002b0dd0029c139ba446099a413b6244a6
:100f48007e491000192b01d80831dae70c31d8e7af
:100f5800002200230898069905f082fe0026784fa3
:100f6800002400283ed1040002e00134049e059fbd
:100f78000022744b3000390001f0dcfc089a069b13
:100f88000490059105f0d6fb0028eed000230493c9
:100f980020e06d4b9c4214da049b002b11d10022f7
:100fa8006a4b0898069901f0c5fc684b08900691b1
:100fb80030003900002201f0bdfc012306000f00bb
:100fc80004933000390000225e4b03f08dfb0600cd
:100fd8000f00013c32003b000898069905f0c9fb58
:100fe8000028d6d1139806f04dfbc3b20c93002d00
:100ff80000da8fe10493672b00d0ade0002d00d11b
:1010080084e1231d02dbac4200daa1e06523b1e0f4
:10101800002200230e920f93fee006960797049b8a
:101028002600652b00d015e1002613e1129b002b4a
:101038000bd1002e09da029a14992e335354039bcc
:101048000137013b039301231293ea193b009446ad
:10105800302102e0029ad15401339c45fad1039a17
:10106800eb19551b029a30305f1cd0546b1e03934a
:10107800002521e00d9b14971b691093053bbb428b
:1010880000d8f0e0069a079b08980e9903f02cfb0d
:1010980003f062fd1090119105f0dafc092800dddb
:1010a800092010230a9a13400343bfd10c9b672bd6
:1010b800bcd1002ec9da01358020000684460e997d
:1010c800089a61440b001098119900920193069aae
:1010d800079b06f0c1fa80231b06cb1808900e93d5
:1010e800069807990022174b03f0fefa013e069076
:1010f8000791b4e00a9bdb0600d4b8e02e23029add
:10110800d3550137b3e020000a2103f023fe029be8
:101118003031013d595520000a2103f0d1fd039bd0
:101128000400013b0393b2e0029b03991a5c5b182d
:101138001a540138dbe0c0460000f07f507600000a
:101148000000f03f00002440d4feffff00005043a1
:10115800002c0eda66230493049b0135662b0ad112
:10116800002c02da002600246d4f0c9b672b00d060
:101178002d1966230493089b0e960f971293069bce
:101188001093002314930e9a0f9b1298109903f052
:10119800abfa03f0e1fc1690179105f059fc199091
:1011a8008020000684461099129a61440b00169814
:1011b8001799009201930e9a0f9b06f04dfa80231f
:1011c8001b06cb18129010930e980f99554b0022be
:1011d80003f08afa149b0e900f91013314939d42e9
:1011e800d1d10022504b01f0a5fb0e900f910200c7
:1011f8000b001298109905f0bcfa002800d007e7f8
:101208000e9a0f9b1298109905f02afd002803d01a
:10121800199bdb0700d4fbe60e9a0f9b08980699ea
:1012280001f0dcf8002208900e913e4b30003900a6
:1012380001f080fb089a0e9b0690079105f0b8f91b
:10124800002800d1e9e6049b0134662b00d0e6e6cd
:1012580026000135731b0025099f16931295169bce
:101268009e4200d006e7129b002b00d142e70026e1
:10127800029bdb1906931e70049b652b2ad1189bd1
:101288005d1e029b5e55b44201da64420136002cb1
:1012980000d038e7189beb1a0333002b00dd32e748
:1012a8006a1e2d23002e00d1023b0299023d8b5469
:1012b800139b413b192b01d845230493029b5919d1
:1012c800049b0b70039b023b0393af4202da069820
:1012d80006f00afa03230a9a1340022b00d012e6fa
:1012e800039b002b00dc0ee6029806f067f8099bca
:1012f800834200dc18e7029a3021944663441800c0
:10130800039a06f0fdf800230b93fce5012578e627
:10131800062576e60c9b672bfad0049306251be777
:0c1328000000f03f0000244000001440d2
:020000040000fa
:10133400f8b5de4657464e464546e0b5040015006e
:101344000f270f404eb2431e033300d9c2e10823d6
:10135400d356022b00ddc0e1022f00d9c0e1436a5d
:1013640098463b0010339b00c31859683211082378
:1013740013408a469a445346db79db0700d4b2e132
:101384006b68994653469988484603f039ff00290b
:101394004cd0002e00dba9e1e378002b4cd00023d5
:1013a400ab6103332b720023994669682962534663
:1013b4001a68002a00d072e104232b720023eb6127
:1013c40053461d60002f00d02be1002e00dae8e028
:1013d4002123e35c032b6ad0042b00d1c7e0012b4b
:1013e40000d061e1216d0832286806f081f882237b
:1013f4005b0040224146ca54f43b0822ff328b541e
:101404000a22ff328b542b689a79002a44d1212373
:101414000732e2545346aa691a6002232b72eb681e
:10142400002b00d140e1280098473de1002e0edb5f
:10143400e378002b00d05ce1a37b012b1bd07f2041
:1014440040423cbc90469946a246ab46f8bd2b7c34
:10145400da0706d54a46002a03d0802252421343b3
:101464002b74e378002be7d00023ab6103332b729a
:101474000023994699e700239b46a3730a2020562c
:1014840005f098f981465b46ab6103332b7200216a
:10149400002e00db8ae788e71b787f2b03d8212303
:1014a4000222e254b6e721230622e254b2e7666d33
:1014b400b604b60c286a6b6832189a4201d91e1a0f
:1014c400b6b2216d2b689c466044320006f010f8d9
:1014d4002b6af3182b626a6893421bd300232b7286
:1014e40021330822e254203bff3241468b540a2226
:1014f400ff328b540433ff33c93aca542b6a6b60ee
:101504005346aa691a60eb68002b00d1cce028008e
:101514009847c9e053469b88b3421bd901232b72d9
:1015240021220821a1540822ff3241468b540a2269
:10153400ff328b540433ff33c93aca542b6a6b60ad
:101544005346aa691a60eb68002b00d1ace028006e
:101554009847a9e001230822ff3241468b540a220e
:10156400ff328b540433ff33c93aca549ce000233e
:101574002122a3542b7201330822ff3241468b549b
:101584000a22ff328b540433ff33c93aca545346f8
:10159400aa691a60eb68002b00d185e028009847ff
:1015a40082e02123e35c062b14d0072b7cd121237a
:1015b4000822e254636e9b0b9b0363660223ff3293
:1015c40041468b540a22ff328b540623ff33893a57
:1015d400ca5469e02b6a52469688b34200d29eb23e
:1015e400206e3200296805f083ff2b6a9b1b2b6257
:1015f40021230922e254636e9b0b9b036366626e94
:10160400b3049b0c1343636602230822ff32414652
:101614008b540a22ff328b540623ff33893aca546f
:1016240042e0002e12db29687b01e21811651f00dd
:10163400474405220821ff317a543b000a33ff3323
:101644001a7082235b003b32fa542de0286a9b888f
:10165400984200d883b26a68101a2a689446604493
:101664007a01a1180866286ac01a2862486e800b9d
:1016740080034866486e9b049b0c03434b6613002f
:1016840043440a220821ff315a541f000a37ff3706
:101694003a700622ff328739995405e01a0093699b
:1016a400002bfbd19561ea61e3780020002b00d088
:1016b400c7e64b46002b09d0a37a5ab2002a05dbb1
:1016c4001f221a40012393400d4a13600123a37380
:1016d4000020b6e67d204042b3e67b204042b0e6df
:1016e4007c204042ade676204042aae67d2040427e
:1016f400a7e60023ab6103332b720023994655e61a
:0417040000e100e020
:020000040000fa
:101708000023f0b506001500b1b0079103930799bf
:101718000b78002b00d10de101235b420c9310ab39
:1017280000240e9380230b940d940f930b5d002bd4
:1017380001d0252b2ad1002c06d02200300005f03c
:10174800f2fb079b1b190793079b1a78252a00d0e1
:10175800e5e0013304930793022301219c461027f7
:10176800079803782b2b1ad025d8202b1ad0232b97
:101778001dd02a2b28d004f09dff0d90079b1a78c6
:10178800303a092a31d801330793f7e70134cde716
:101798000b9b05930b4301300b930790e0e7042361
:1017a8000b9a0fe00b9b0593059a08230ae00b9b05
:1017b80005933b43efe72d2bead0302bd9d1624676
:1017c8000b9b05931343e6e72b6801301a1d1b6832
:1017d80007902a600d93002b07da0b9a5b4205925b
:1017e800012205990d934a400b920b9bda0702d50b
:1017f800022293430b93079b1a782e2a0ed10022bc
:10180800581c0c9207905a782a2a28d10233079339
:101818002b681a1d1b682a6005930c9307a805f00e
:10182800fdf8079b0700187805f02cff692800d100
:1018380083e035dc632800d1dde01bdc252800d1fe
:10184800eae0612859d0049b012207930023524201
:101858000c920b930d93784900930232e7e004f061
:1018680029ff0c90079b1a78303a092ad6d80133f9
:101878000793f7e7642860d06728e4dc2a0039007a
:1018880008a805f09dfa002800d1b0e0079b0ba935
:101898005a1c07921b7808aa3000fff7e9fa3de0c6
:1018a800702800d17de016dc6e2800d198e06f2802
:1018b800c9d12b000022390008a802f0d7ff002860
:1018c80000d194e0079b08aa01330ba930000793c5
:1018d80005f028ff22e0752840d078284fd07328db
:1018e800b1d1802f00d082e0079b2a68013307938b
:1018f800131d2b601268002389e02a00390008a80c
:1019080005f05efa002800d171e0079b0ba95a1c6c
:1019180007921b7808aa300005f006ff2418039bdd
:101928001c19a34200dc84e04f22444b1a600123b7
:101938005b420393039831b0f0bd2b0001223900bc
:1019480008a802f093ff002851d0079b08aa01338a
:101958000ba93000079303f059f9dfe72b000022a9
:10196800390008a802f082ff002840d0079b08aa87
:1019780001330ba93000079305f0d4fecee72b0006
:101988000022390008a802f071ff00282fd0079b19
:101998005a1c07921b7808aa0ba9300005f0c4fe50
:1019a800bce72b000022f02108a802f05fff002806
:1019b8001dd0079b099a01330793089b13430dd148
:1019c8001d4f1637380005f0f9fc390002000b9b53
:1019d80000930d9b300003f023fe9fe77823dae79e
:1019e800039b39001a1908a82b0004f0f3f8079b89
:1019f8000133079393e7802ff9d1079b01330793ae
:101a08002b681a1d1b682a6008aa137001230ba9ea
:101a1800300004f035fb81e7802fe8d10122079bd5
:101a28000549013307930b9b049300930d9b1c31cd
:101a3800d0e703946be6c046967100009809002031
:020000040000fa
:101a4800400900201c000000000000005008002091
:101a58003c000000000000000004002034010000e9
:101a680000000000d00700208000000000000000f7
:101a7800c40800203000000000000000ac0d002069
:101a88005000000001000000f56d000059750000cd
:101a9800c1750000717600007f7600006b7500004c
:101aa800d9700000a552000071270000112c000019
:101ab800cd3700006d3300000d6c0000bd6e0000d6
:101ac80035130000714d0000b54e0000d1750000bf
:101ad8008f2a000000000000f40800202c000000fd
:101ae800000000008c090020080000000000000031
:101af8003405002058010000000000008c07002079
:101b08004400000000000000800900200a000000d6
:101b180000000000a40900200200000000000000ee
:101b28005c09002018000000000000008c0600205e
:101b38005800000000000000740900200c0000009c
:101b4800000000008a0900200200000000000000d8
:101b58000000002000040000000000008c080020a5
:101b68003800000000000000e406002058000000d3
:101b780000000000a609002002000000000000008c
:101b8800200900202000000000000000a809002013
:101b98000200000000000000ac0900200004000062
:101ba8000400000000318080c0e0e0e0e0e0e08078
:101bb800001ce0f0f0f0e0000780e0f0f0f0f0f05a
:101bc800e0800007e0f0f0e0001cc0e0f0f0f0f08a
:101bd800f0e0e0c080000d80c0f0f8feffffffffde
:101be800ffffffffffff3f001cffffffffff000598
:101bf80080fcffffff0f010ffffffffc0006ffff48
:101c0800ffff000de0e0e0c0000680e0f8feffff07
:101c18003f1f1f0f1f3ffffffffffefcf0e080008c
:101c28000480e0f8feffffffff7f3f0f070301007e
:101c380022ffffffffff0004c0ffffff1f0004019a
:101c48001fffffff800004ffffffff000d030f3f92
:101c58007ffffef8f0f8feff7f1f07010002387cc7
:101c68007c380002030f3ffffffffffffffefcfe73
:101c7800ffffffff7f1f07010028077fffffff709f
:101c8800000180e0ffff3f030007073fffffe08000
:101c9800000170ffffff7f00110103070707030121
:101ca800001003070f0f1f1f1f1f0f070301002737
:101cb8002020203030303839191c0e0f0713393cda
:101cc8003c3830000530383c3c3913070f0e1c1dda
:101cd8003938303030202000ff008500aa09002064
:101ce800020000000100000001010000940900202a
:101cf80008000000000000003c0700205000000021
:101d0800000000009c0900200800000000000000fe
:101d1800000000000000000066666666666666668b
:020000040000fa
:101d2800f0b589b000230593069307938e4b1a7973
:101d3800052a00d9f6e093008c4ad3589f46032120
:101d4800002004f053fd884b1860431c00d1e9e0e3
:101d58000022874905f072f8834b01221a71e1e0ed
:101d6800814b1b7b002b00d1dce07f4b02221a71d8
:101d7800d8e005f08bf8002800d0d3e07a4b032296
:101d88001a711d329b5c002b00d1cbe0764c2023ce
:101d98000022e254213ba3618133210018319b00ca
:101da800a26a01f015ffa369013300d0bae06e4bb7
:101db80006221a71b6e005f069f8002800d0b1e0f3
:101dc800694a2023d35c002b00d1abe014008022a9
:101dd80092000021e06a05f093fba56a3e212800e5
:101de80005f098fbff2404402b5d3e2b02d12b7895
:101df8003c2b11d05c4c802292000021a06a05f097
:101e08007ffb5c4901224c31e06a05f013fb6063fb
:101e1800554b04221a7185e0621e691c280004f0e3
:101e2800d9fe514b9a6a94466444013c00222270c0
:101e3800504c986a210004f04bf90500211d05f06b
:101e480004fb002815d04b492c31280005f0fdfa79
:101e58000028cfd1474904f03bf90028cad1424ca9
:101e680044491c223031e06a05f040fb1b236363c0
:101e78004ce0404904f02cf90028bbd105af002400
:101e88003d4ec0256d0111e02900052005f042fafc
:101e980005f0aaf905f04afa0028fbd005f0fafb8c
:101ea80038800134e4b20237062c1dd0052cefd857
:101eb800a300f3589f462900042005f02bfae7e712
:101ec8002900002005f026fae2e72900012005f0a4
:101ed80021fadde72900062005f01cfad8e72900d9
:101ee800072005f017fad3e705a843880288214997
:101ef8001d4c4589039505890295c58801958088fb
:101f080000900831e06a05f095fa6063164b986a0c
:101f180080229200002105f0f3fa79e704f0b6ff79
:101f2800002801d009b0f0bd0f4901235b42cb6105
:101f380022330022ca541c3b0b714b6bca6a1c31fa
:101f480001300090002001f04df8ebe704f09eff0f
:101f58000028e7d1044a2123d35c002be2d01300e8
:101f680002221a71dee7c0468c080020ec6a0000e5
:0c1f780005580000285e0000046b00000b
:020000040000fa
:101f8400f0b5d646474680b587b0049005910392d4
:101f9400029311ab1e78109b002b33d001235b42bc
:101fa400109a136004f00ef9051e2bd0012e10d0e8
:101fb400022e15d0082e13d0029b002b22d0039b97
:101fc400002b1fd00f9b002b1cd00e9b002b0dd180
:101fd40018e00f9b002b15d00e9b002b06d111e0af
:101fe400029b002b0ed0039b002b0bd02f683b01d0
:101ff400db1b9b00754a92469a44504603f038f81e
:10200400002804d107b00cbc90469a46f0bd2b685a
:102014009c461b0162469b1a9b006c4ad3185c6a5f
:10202400186a002800d1cce0217823002c33002248
:1020340000290ad00132904200d1c2e01c002c33a6
:1020440019002c3909780029f4d1012323700023c5
:10205400a3622b681b061b0c614609016046091a22
:1020640089005a484118888d00040343ff20024028
:102074001a4322628a8d013292b2554b9a422ed073
:1020840063461b0161465b1a9b005049cb189a8535
:10209400059b63800e9b63600f9ba360039be360bf
:1020a400029b2361049ba36100232422a354233aab
:1020b400227763752675109b226a1a6053469b6ac1
:1020c400002b0ed03b01db1b9b00404ad3189b6abc
:1020d400002b56d09a6a002a4fd11a0050e00122f0
:1020e400cee753469c623b01db1b9b00374ad31867
:1020f4005b696a6993420fd0280014303b01db1bf3
:102104009b00324a904698444346db685b69002151
:10211400984743466a695a6102232377012e34d0d3
:10212400022e40d063682269e16860883e01f61b94
:10213400b600264dae19f668a5680095b668b04796
:1021440000281ed101235b42109a13603b01db1b64
:102154009b001e4ad318db681b6998472423e0546c
:10216400e35c5a4253415a4202231340013b6375d4
:10217400504605f077f904e01a00936a002bfbd16e
:102184009462504603f056f93ce760883b01db1b40
:102194009b000e4ad318db681b68a26861689847e5
:1021a4000028eed1cee760883b01db1b9b00074a89
:1021b400d318db685b682269e16898470028e0d19e
:1021c400c0e7504603f036f91ce7c046500800202b
:0421d400ffff000009
:020000040000fa
:1021d800f0b5de4657464e464546e0b585b08246e0
:1021e8000300202820d0072827d0082838d1744b8e
:1021f8001978744b1a7853009b185b003f2082466d
:10220800994226da53467e3b9a00d31803935346e5
:10221800533b9a00d31802935346203b9a009346a7
:102228009b440023994679e0654b1b78002be9d144
:10223800654b1b78002be5d004e00023634a13703c
:102248005f4a137005b03cbc90469946a246ab461f
:10225800f0bd9300d21a52008a18594b1a70f1e750
:102268000d2803d1564b00221a70ebe70a2811d12a
:10227800544b1978cb00554a12789a18d2b25b1a87
:102288009b18402b02dc514b1a70dbe74f4b0022a6
:102298001a70d7e7203b662bb4d93f239a46b1e79b
:1022a8007d2b06d84a4b029a944663444a469d5c65
:1022b8003ee0484b039a944663444a469d5c37e0a7
:1022c80021005143414800780918c9b2404650439b
:1022d8003b4e3678b4466044c0b20093130004f015
:1022e8002ffd0134e4b26d08072c11d03b002b40c0
:1022f800344a1278012ae3d1344a11786118c9b2f4
:102308002f4a10784044c0b21a0004f00df9e8e7eb
:1023180001239c46e1444b46052b0cd04b46dbb2cf
:1023280098465346522bbbd82b4b5b444a469d5c80
:1023380000240127dae7234d2a78d3009b1adbb261
:1023480022490978900010181d4c26788019c0b2cf
:102358000026009604f0f4fc29784b00cb185b00ab
:1023680022789b18dbb24a005218520080329342fe
:102378001edc134a1370144b1b78002b00d161e745
:102388000f4b1b788a0052189b18802b00dc59e7ea
:102398000b4b00221a70cb000c4a12789b18dbb248
:1023a800ca00511ac918402906dc084a137049e7bf
:1023b800034b80221a70dee7044b00221a7041e7b3
:1023c800a8090020aa090020ab090020a9090020bb
:0c23d8004c4500004c6b0000d83c00009d
:020000040000fa
:1023e400f0b40125ed070f005f405ad48b4200d1b1
:1023f400824205d950404240504059404b405940d8
:102404004e18760ddf187f0d3bd0741c640529d05f
:10241400f41b352c26d80e0ddb022b43db0ac90234
:102424002943c9121700202c1ed2e741e24057402d
:10243400e3415a40a340e3405a40002480185941e4
:102444000ad3b21c520521d0c207012f62411700e2
:102454004008cb0718434908013636054208af4106
:1024640060417141f0bc7047203c06d01f00e74139
:10247400e3405f400024012a6741c0186141ebd367
:10248400dfe7002eeed129400020ebe701363105cd
:102494000020e7e7e742e5d10020c143090dc90464
:1024a400e0e76b400e00871a9e4104d26e40c01bc9
:1024b400b141d21973414e18df18ac0ae642e9d291
:1024c400760d7f0d31d0f41b362ccbd8b4460e0dcf
:1024d400db022b43db0ac9022943c90a012c32d887
:1024e40004d1d4075208df073a435b08ef0a644279
:1024f400904199411ed0002239424dd124194041c6
:1025040049410124394204d1013400184941394276
:10251400fad06246a24204d9361b013e3605891917
:10252400a0e7f10ac90700209ce736429ad10020af
:10253400002197e70200224394d0b842ded2010082
:1025440020002024e3d1202c13dd203ce24117009d
:10255400a240e2405740e3415a40a340e3405a407e
:10256400012fbf410137174300227c42984191411a
:102574000ce01700e741e2405740e3415a40a340d2
:10258400e3405a407c429041994100220f0303d218
:10259400013e241940414941013e36054708ac41fa
:0825a40050417141f0bc704789
:020000040000fa
:1025ac0010b58423db059b7d002b18d08423db0521
:1025bc005b8b9b0714d56a4b2022ff219954013267
:1025cc00fd399954664a2023d35c5bb2013300d1a8
:1025dc0093e0634a2023d35c062b00d1a7e010bd07
:1025ec008423db055b8bdb0707d55d4b2022ff21aa
:1025fc0099540132fd399954e4e78423db055b8b54
:10260c005b0707d5564b2022ff2199540132fe3926
:10261c009954d7e7524a2023d35c5bb2032b47d0a3
:10262c00042b0fd0022bcdd11369002b04d0908832
:10263c00002103f0a9fcc5e7494b9888012103f060
:10264c00a3fcbfe7464a9369126993420dd0444af2
:10265c009168cc5c8420c0052821445401339361db
:10266c000200d369002bfcd1ace73d4b5b69002b1e
:10267c000fd03b4b9b885b00012213438422d20575
:10268c005362d369002bfcd1354a20330321d1543a
:10269c0098e78422d2055168c0239b020b435360f8
:1026ac00d369002bfcd12e4a20330621d15489e763
:1026bc002b4a5369013bd2699a420fd08422d2052e
:1026cc00d369002bfcd1264ad3698420c00528216c
:1026dc00415cd068c1540133d36173e78422d205c5
:1026ec005168e023db020b435360d369002bfcd110
:1026fc001b4a20330621d154e0e720230021d1547a
:10270c008422d2055168c0239b020b435360d369ca
:10271c00002bfcd18423db0583221a76104b5b6ad9
:10272c00002b00d15be70e4a906a984757e71300dd
:10273c00002220215a5401315a548423db05833260
:10274c001a761900533a4b8b1340102bfbd1044bc8
:10275c005b6a002b00d142e7014a906a98473ee73a
:04276c00f40800204d
:020000040000fa
:10277000f0b5d6464f464646c0b50f260e40022e4f
:1027800000d9b1e0fe25ad001c00083ca4b2ac426b
:1027900000d9ace0441c00d1ace0446aa146082b4f
:1027a00049d9002408250134e4b26d00adb2ab4232
:1027b000f9d835001035ad0045196d68002a3cd1b7
:1027c0002a60ab80aa710126e9793143e971aa60d8
:1027d000ab81aa73eb7b3343eb7380235b004946e9
:1027e000ca541132ca54426d44490a404265436e8c
:1027f0000b404366436d2407e022d2051440234377
:102800004365436e1c43446603690365436903667d
:10281000436d5b005b084365436e5b005b0843668a
:102820000a23ff3313224946ca5400201cbc904699
:102830009946a246f0bd0024bbe749b28a46091179
:10284000884608218c464146674639408c46654497
:1028500000212960ab80aa71eb7901218c46614689
:102860000b43eb715346002b29db73014b441f00d4
:1028700080235b00fd5c07218d43fd54fd5c52000d
:102880001f49525c1543fd540623ff334022fa547e
:1028900076005346d90f761836018019436d174ad2
:1028a00013404365436d2407e022d20514401c43c6
:1028b0004465436d5b005b0843650020b6e7730128
:1028c0004b441f0080235b00fd5c70218d43fd5451
:1028d000fd5c520094460a4a624452781543fd5406
:1028e00004338022fa54d3e77c2040429ee77c20c8
:1028f00040429be77d20404298e7c046ffffff8fa4
:04290000fc76000061
:020000040000fa
:1029040008d1002806d1f54204d801d3002a01d108
:102914006d0d09d10020c143090dc904f0bdf9d1e1
:102924001242f7d1640df5d00020c143490549088e
:10293400a6e000206146f0bdf0b50127ff070e00b8
:102944005e403e40b446be0a4c18dd18f442d7d26d
:10295400f542e4d2640decd06d0dead06419c902dd
:102964003943460dc0023143db023b43db0a10b45a
:102974008e4685b297b26f43140c6c433e0ca41977
:10298400260c2404bfb227439cb26c43a419190c2f
:102994006943250ca4b249190d04090c6419000cef
:1029a40095b245433e0c76193743bfb2360c150c2d
:1029b4004543ad19a6b2240cad192e0437432e0c91
:1029c40036199db24543ad19acb22e0c89191d0cb4
:1029d40045436d182e04290c3443704680b295b2d9
:1029e40045433e0c76193743bfb2360c150c4543ac
:1029f400ad19a6b2ad19240c2e0437432e0c36198a
:102a04009db24543ad19acb22e0c89191d0c45433a
:102a14006d182e043443290c75462d0c90b268436e
:102a24003e0c80190604bfb23e43070ca0b23f1807
:102a3400120c6a43d019020c80b2240ca4189ab266
:102a44006a43121914042043120c89181b0c6b439b
:102a5400c91810bc01273d05294203d1b6194041cc
:102a64004941013cff077d0d013d641b0bdb6d00fb
:102a7400ac4209da240500254208be41684161419f
:0a2a840066463143f0bd54e74ee70b
:020000040000fa
:022a8e0070478f
:020000040000fa
:102a9000b5b5b6b7b7b8b9b9babbbbbcbdbdbebf9b
:102aa000c0c0c1c1c2c3c3c4c5c5c6c7c7c8c9c9e0
:102ab000cacbcbcccccdcececfd0d0d1d1d2d3d32c
:102ac000d4d4d5d6d6d7d7d8d9d9dadadbdbdcdd82
:102ad000dddededfe0e0e1e1e2e2e3e3e4e5e5e6de
:102ae000e6e7e7e8e8e9eaeaebebececededeeee41
:102af000eff0f0f1f1f2f2f3f3f4f4f5f5f6f6f7a6
:102b0000f7f8f8f9f9fafafbfbfcfcfdfdfefeff15
:102b10008080808181828283838484858586868784
:102b200087888889898a8a8b8b8b8c8c8d8d8e8ef9
:102b30008f8f909090919192929393939494959576
:102b4000969696979798989999999a9a9b9b9b9cf9
:102b50009c9d9d9d9e9e9f9fa0a0a0a1a1a1a2a281
:102b6000a3a3a3a4a4a5a5a5a6a6a7a7a7a8a8a80c
:102b7000a9a9aaaaaaabababacacadadadaeaeae9b
:102b8000afafb0b0b0b1b1b1b2b2b2b3b3b3b4b42d
:102b9000b3b2b0afaeadabaaa9a8a7a6a5a3a2a198
:102ba000a09f9e9e9d9c9b9a99989796969594938c
:102bb00093929190908f8e8e8d8c8b8b8a8a898840
:102bc00088878786858584848383828281818080cb
:102bd000fefcfaf8f6f4f3f1efeeeceae9e7e6e4ee
:102be000e3e2e0dfdedcdbdad9d7d6d5d4d3d2d14d
:102bf000cfcecdcccbcac9c8c7c6c5c5c4c3c2c158
:102c0000c0bfbebebdbcbbbabab9b8b7b7b6b5b522
:020000040000fa
:102c1000f8b5ce46474680b504000e000f250d409e
:102c2000022d02d9102900d09ae0631c00d19ae04d
:102c3000676ae378002b10d1a37b012b05d07f209e
:102c400040420cbc90469946f8bd0023a3730a206d
:102c5000205603f0b1fd814601e000239946102e75
:102c600028d0002d4dd17f23842149007b54082199
:102c7000ff317b5481330021f954636cd9790120f1
:102c80008143d971d97b8143d973e3780020002b2c
:102c9000d7d14b46002b09d0a37a5ab2002a05dbc4
:102ca0001f221a4001239340304a13600123a3736b
:102cb0000020c6e71023842149007b540821ff31fe
:102cc0007b542600443600211b01984600239c4675
:102cd0007f254b01fb184246604698541800093086
:102ce000ff3005700820ff301d5408ced87901222e
:102cf0009043d871d87b9043d87301310329e8d130
:102d0000c3e776b2002e1bdb6b01fb18802040006e
:102d1000195c0727b943195405210820ff301954bd
:102d20000933ff3319701035ad0065196b68361122
:102d300008210e409e19f37907398b43f371a4e7fc
:102d40006b01fb1880204000195c7027b9431954af
:102d50000a210820ff3019540933ff331970e2e7c4
:102d60007c2040426de77d2040426ae700e100e0c0
:020000040000fa
:102d7000f0b583b005000c004978032900d179e053
:102d80001dd9052930d009292cd1a278e3781b025e
:102d9000134304d1c17807220a40052a2ed0ad2260
:102da000aa5cdbb29a4200d17fe0ae23ef5c002f39
:102db00041d00233ea580023b4218c4633e0012984
:102dc0000ad1a278e3781b021343012b05d1bf334c
:102dd0000022c254002100e00121280003f08bfaf8
:102de00003b0f0bd0121f8e7027880235b42134372
:102df0000370a278ac23c2540021eee7b833063248
:102e0000c25403f0b9f9ad230022ea54eb7807323b
:102e1000934304221343eb700021dee70133dbb25e
:102e20000432bb4207d011684e79a0788642f5d1b2
:102e300060462950f2e7a278ad23ea54280002f058
:102e400077fbeb780722934305221343eb70a278bc
:102e500001ab1a70d523eb5c0021012bbdd1d73318
:102e6000eb58002b23d0dc22aa5801a90a2098474e
:102e70000021b2e7a278e3781b021343012b0fd0a5
:102e80000121022ba9d102780c331340022ba4d1cb
:102e900063798370437801221343437000219ce7d8
:102ea000bf330122c254002197e7002195e700219a
:022eb00093e7a6
:020000040000fa
:102eb2000122d20703004b403dd430b4431a01d261
:102ec200c01ac9184b004400240eff2c29d0002c34
:102ed20024d01b0e20d0e31a182b1ddc090211434b
:102ee200c40d000210435d4219350a00aa40d209fe
:102ef200d940451801d36d080234013ce405280a83
:102f02000121c9072d062a438a4160414100090e69
:102f1200ff2901d3c00dc00530bc7047c00fc007e8
:102f2200fae742001823da41ff2af5d07f20000198
:102f32000c300005f0e7a4465140431a02d2534038
:102f4200c01ac9184b00090211431b0e4400240e7b
:102f5200ff2c41d0002b10d05b421b19012b10d348
:102f620022d1c30d4002401a10d3db050100400af2
:102f7200c90591415841644670472442fbd1002063
:102f8200f9e7c30d40024900401af4d00021013193
:102f92004000fcd38c4204d95b1adb05400ac018fe
:102fa200e9e7180ac007e6e7192be4d801330c0059
:102fb200d940dc414c40012c4941c30d0002104371
:102fc200441a01d4a4006408013bdb05200a24064c
:102fd2009441584164467047ff2b01d04102cad048
:0a2fe2007f2000010c300005c5e758
:020000040000fa
:102fec00f0b5c64600b506000f0015001c0006ab78
:102ffc001b78002800d073e0012252420a60404a3c
:10300c00127c002a00d16ee0002c00d16ee09a07f1
:10301c000ad53b4bd989a14200d96ae0200002f0c5
:10302c00ebf8641a022101e001211940344b5a6b70
:10303c009b6a9a4260d2334b5b78012b05d060249b
:10304c006442200004bc9046f0bd2e4b00225a7006
:10305c002d4b1b7a5bb2012b10dd2b4a2c23d35644
:10306c00012b0add5023d3560226012b06dd254bfe
:10307c0001225a7080246442e3e70126224af000c0
:10308c0083199b009846904483199b009d5043469e
:10309c005c600023444663611c4be360464621742c
:1030ac0004f02afb164c636b0133636304f028fbba
:1030bc003e60217b2068424603f020ff041e03d1b2
:1030cc00104b01225a70bce704f016fb0c4a536bf0
:1030dc00013b536304f014fb01235b423b60efe7bd
:1030ec0078246442ade776246442aae77e246442e5
:1030fc00a7e77e246442a4e780246442a1e7c0468b
:10310c008c070020a409002020060020595900003b
:020000040000fa
:10311c00f0b583b004000d0016000823c356002b35
:10312c0000dc86e0092900d981e08b00424ad358a3
:10313c009f464378042293434370e427c3591b6c86
:10314c000021c0699847e3591b6c8021e0699847be
:10315c00200003f00bf8e3595b6a1021e0699847f3
:10316c00e3591f6a402300228021e069b84790236d
:10317c00e356022b07dc22008832e423e3589b6bd6
:10318c000021e0699847e378072293430322134315
:10319c00e370e423e3581b69e06998470723034075
:1031ac005b0020780e22904318432070e2680e23b7
:1031bc001840022816d0b0239168e1501279023bd6
:1031cc00e254ad230022e254d523e35c012b30d131
:1031dc00d733e358002b2cd0dc22a2583100280026
:1031ec00984726e0a2335169e150127c023be2542d
:1031fc00e7e74378042293434370e5e743780422de
:10320c0013434370e0e7e423c3585b69c0699847f4
:10321c0001ae3080d8e7c3780722934301221343d1
:10322c00c370d1e7c37807229343c370cce7002d5a
:0c323c00cad103b0f0bdc0461c6e0000fb
:020000040000fa
:1032480030b583b0002800d081e0444b1b78002bb8
:1032580000d07fe0414b01229a731a7020301a5433
:103268004c685c62c87b587200205870986318716b
:103278008d7a9d72cd7add720d7b1d734d7b5d73ea
:10328800d87022705a6a013093780342fcd10a231d
:10329800d370334b1b685b0b0193019a1f231340b8
:1032a8001f2b33d02d4a526a108d9b01034313857f
:1032b800019b9b05db0e1f2b2ad0108d0343138522
:1032c800019bdb045b0f072b24d0108d1b030343ea
:1032d80013850b7a002b03d0137804200343137053
:1032e8001e4b5b7a012b17d01c4a516a0b780220bf
:1032f80003430b70516a02228b781342fcd1174aa0
:1033080020230221d154002003b030bd1a3bc9e765
:10331800023bd2e7043bd8e7104b5a6a18005030fa
:1033280050623c22002098540a6a1a645a6a138927
:103338000c308343897b032906d09bb2138100217b
:10334800064803f0abfacfe701310b43f5e701205c
:103358004042d9e701204042d6e7c0460004002099
:043368001860800069
:020000040000fa
:10336c00f8b5ce46474680b5060088460f240c407b
:10337c00022c00d97ce0431c00d17ce0476a23007e
:10338c0010339b00c3185d68c378002b10d1837b6e
:10339c00012b05d07f2040420cbc90469946f8bdcd
:1033ac00002383730a20305603f000fa814601e0b3
:1033bc0000239946002c2dd182235b00f722fa546e
:1033cc000823ff33783afa54eb790227bb43eb71ad
:1033dc00043c2100280003f0c7fceb7bbb43eb73e0
:1033ec0028000830210003f0bffcf3780020002bec
:1033fc00d2d14b46002b09d0b37a5ab2002a05db46
:10340c001f221a40012393401c4a13600123b373fb
:10341c000020c1e743465bb298461b1108201840b8
:10342c002818c37902229343c3710421494203f043
:10343c009bfc4346002b0ddb64013c1982235b0093
:10344c001022e2540822ff322021a154073aff3afd
:10345c00e254cae764013f1982235b002022fa542c
:10346c000822ff324021b954063aff3afa54bce71d
:10347c007c20404290e77d2040428de700e100e057
:020000040000fa
:10348c0070b582b0040016006b460022da710e296a
:10349c0001d002b070bdec2545433f4bed18b2791d
:1034ac00f3791b0213432a00e03213802b00e43320
:1034bc001b681b6c7231e86998473378db06db0eae
:1034cc00dab2012a2cd05bb2002b09d0022a38d0f8
:1034dc00032aded132000e21280003f0edfbd8e7e1
:1034ec003278602313400cd152b2002a04db310035
:1034fc002800fff737fccce73100280000f0e4fc93
:10350c00c7e7402b06d0202bc3d10121280002f0a5
:10351c00ecfebee732000e21280003f0cdfbb8e72d
:10352c00327860231340402b05d0317932002800cb
:10353c0002f054fdade731793200280002f04efd67
:10354c00a7e7317900290ad1337860221a421bd1be
:10355c006b46d9793200280001f0e2fe99e76b4600
:10356c00da1d280003f084f8ec2363430a4ce418ba
:10357c00e27807231340052b01d10028e4d1012167
:10358c00280002f0b2fe84e76b46d979320028009d
:0c359c0002f024fd7de7c046340500204d
:020000040000fa
:1035a80010b504003f4b18703f4b3c221a70ae20f8
:1035b80003f0ecfed52003f0e9fe802003f0e6fee0
:1035c800a82003f0e3fe3f2003f0e0fed32003f041
:1035d800ddfe002003f0dafe402003f0d7fe8d2048
:1035e80003f0d4fe012c3bd0142003f0cffe2020a2
:1035f80003f0ccfe002003f0c9fea12003f0c6feb4
:10360800c82003f0c3feda2003f0c0fe122003f046
:10361800bdfe812003f0bafecf2003f0b7fed9200b
:1036280003f0b4fef12003f0b1fedb2003f0aefea0
:10363800402003f0abfea42003f0a8fea62003f070
:10364800a5fe2e2003f0a2feaf2003f09ffe00236c
:10365800164a1370164a1370164b01221a7010bdc1
:10366800102003f093fe202003f090fe002003f0ca
:103678008dfea12003f08afec82003f087feda2021
:1036880003f084fe122003f081fe812003f07efe09
:103698009f2003f07bfed92003f078fe222003f060
:1036a80075fec2e7a7090020a6090020a809002086
:0836b800a9090020aa09002065
:020000040000fa
:1036c00070b5002841d00468002900d13749630053
:1036d00099423cd3364b9c423bd8080003f04cfd4a
:1036e000051c200003f048fd011c281c01f030fce3
:1036f000061c3049281c01f0d7f92f49fff7d9fbe8
:10370000011c301c03f094ff03f06cfc05002b4bf4
:103710009c4209d8ff235b00ff209d421cd8fe3845
:10372000012d19d9680817e07e23ff33984212d87b
:10373000032839d94000032101f028fd06020321a6
:10374000280001f023fd304306e000202be000209c
:1037500029e0002027e01a481849a142894149423e
:103760008422d20513680224a3431360d369002b7b
:10377000fcd18423db05d8601a6812480240090690
:10378000114319601a6802210a431a601a00d369aa
:10379000002bfcd18423db0510225a831a00d36945
:1037a000002bfcd1012070bd0748d5e7006cdc027e
:1037b00040420f0095bfd63300002041801a06001a
:0c37c0007fff0000fffffffc0102000083
:020000040000fa
:1037cc00f8b5ce46474680b506000d000f240c40d8
:1037dc00022c00d96de0431c00d16de0476a230038
:1037ec0010339b00c3185b689846c378002b10d12c
:1037fc00837b012b05d07f2040420cbc9046994620
:10380c00f8bd002383730a20305602f0cfff8146a7
:10381c0001e000239946002c29d06db2002d42db2b
:10382c00083464013c19102363712d1108231d40c9
:10383c00454403214942280003f096faeb79022211
:10384c001343eb71f3780020002bd6d14b46002ba1
:10385c0009d0b37a5ab2002a05db1f221a40012381
:10386c009340174a13600123b3730020c5e7062366
:10387c00ff332022fa54103afa54033c21004046fc
:10388c0003f072fa02254346db792b434246d3718f
:10389c0040460830210003f067fa4346db7b2b439c
:1038ac004246d373cee7083464013f1920237b7161
:1038bc00bbe77c204042a0e77d2040429de7c0460c
:0438cc0000e100e037
:020000040000fa
:1038d000f8b5ff22ce46474643005b0880b5051c7d
:1038e0001c1c59001206914258d8fe2292059342a0
:1038f00058d801270026324a93421add3149201c4c
:1039000001f0d2f8fc21890503f092fefc21890523
:1039100003f08efe211cfff7ccfa2b49061c201c5d
:10392000fff7c7fa011c301c01f012fb3e00030038
:10393000041c264a5b005b0893421ed9211c201cf4
:1039400001f0b2f8224f8046380004224146103080
:1039500002f098fa8146380004224146203002f0f5
:10396000d5f9011c484601f0f3fa211c01f09cf83e
:10397000011c201cfff79dfa041c012e1cdd802376
:103980001b069c466444124bb600201cf158fff7fe
:1039900090fa041ced0fed07654028000cbc904622
:1039a0009946f8bdfe20191c800501f0d1fa0327c5
:1039b000041c030002269ee7002eebd0e3e7c0467e
:1039c000a330893eaf673b3fd7b3dd3fffe6db2e39
:0439d0007c6b00000c
:020000040000fa
:1039d400f0b54646d6464f46ff22c0b546007308aa
:1039e40080461c1c5900120691424ad8354a93421b
:1039f4004cd9fc22920593424bd9fe229205934264
:103a04005adcfc20191c800503f010fefc218905fa
:103a1400fff74dfa0121494203f0c6f8814600f050
:103a24003ffc012103f0c0f8802300251b06c418c5
:103a3400254f052238004946103002f021fa82460b
:103a4400380005224946243002f05ef9011c504634
:103a540001f07cfa211c01f025f8011c201cfff761
:103a640026fa041c002e02d04346002b18dbad00be
:103a74007d59211c281c03f0d9fd011c281cfff7cb
:103a840016fa1cbc90469946a246f0bd01250e4f7d
:103a9400e8e7191c181c01f005f801258146c7e761
:103aa4000235ad007d59201c291cfff700fa011cca
:103ab400281cfff7fcf9e4e72122044b04481a60b0
:103ac400dfe7c046fee6db2e84690000980900208b
:043ad4000000c07faf
:020000040000fa
:103ad80030b5002800d074e03b4a3423d35c012b76
:103ae80002d00120404230bd1300342298545b7844
:103af8005bb2022b45d1344b1b78002b41d0324ba3
:103b08009b78002b44d1304b5b68002b47d12e4b60
:103b18009d68002d4ed0db6918005c7918330022af
:103b2800002c07d00132aa4244d018001833447937
:103b3800002cf7d1012343710b0702d5224b012436
:103b48009c70214c636801336360a38d1b04ff25bf
:103b58002a401a430261a38d01339bb21b4a934248
:103b680026d0194a938534230124d45400230360b2
:103b7800042421430171126942618360c3600069b2
:103b8800b1e7114a34230121d15401204042aae768
:103b98000d4a34230121d15401204042a3e70b07e9
:103ba800b5d5094a34230121d154012040429ae76e
:103bb8000123d6e7044a34230121d154012040428d
:103bc80091e7012040428ee750080020ffff0000e7
:020000040000fa
:103bd800f8b50e0015001c00002862d101235b42d5
:103be8000b60374b9b7a002b5ed0354b1989200030
:103bf80001f004fb002c5ad000295bd1304b9a6ba2
:103c0800db6a9a4259d22f4b5b78012b03d0602490
:103c180064422000f8bd2b4b00225a702a4b1b7ab5
:103c28005bb2012b10dd284a2c23d356012b0add69
:103c38005023d3560231012b06dd224b01225a7044
:103c480080246442e5e701211f48cb005f18bf00cc
:103c5800c7195a18920015507c6000227a611b4bd4
:103c6800fb6003f04bfd164ca36b0133a36303f019
:103c780049fd3760a17920683a0003f041f9041e34
:103c880003d1104b01225a70c3e703f037fd0c4ae9
:103c9800936b013b936303f035fd01235b42336073
:103ca800efe778246442b4e776246442b1e77e24df
:103cb8006442aee77e246442abe780246442a8e70e
:103cc8008c070020a409002020060020e9580000e5
:020000040000fa
:103cd800000000000000005f00000007000700145b
:103ce8007f147f14242a7f2a12231308646236491a
:103cf8005620500008070300001c22410000412202
:103d08001c002a1c7f1c2a08083e08080080703006
:103d18000008080808080000606000201008040275
:103d28003e5149453e00427f40007249494946217b
:103d380041494d331814127f1027454545393c4aef
:103d48004949314121110907364949493646494906
:103d5800291e00001400000040340000000814224e
:103d680041141414141400412214080201590906bc
:103d78003e415d594e7c1211127c7f494949363ebd
:103d8800414141227f4141413e7f494949417f09a3
:103d98000909013e414151737f0808087f00417fae
:103da80041002040413f017f081422417f404040ac
:103db800407f021c027f7f0408107f3e4141413e44
:103dc8007f090909063e4151215e7f0919294600ec
:020000040000fa
:103dd800f0b5d6464f464646c0b5002867d10029fb
:103de80068d08b69002b68d0354b013018720022df
:103df8001a83da780724a243da708a69da600e8aad
:103e08001e824d695d610c7f0722144024011a78d7
:103e18007027ba439246002291460027b846c02729
:103e28004246da555246224382437f2422401a7082
:103e38005a785b3ca4469c44643467461f5104345a
:103e480040271f510c341855083c4f461f55043461
:103e58001c4f1f5108341b511b4c1c679b67742453
:103e680018558243033082435a70d42248469854e6
:103e78001032486a9850498c04329952002e10d05a
:103e880000241e0005e010350134e4b2338aa34251
:103e980007d9eb68002bf6d01b69002bf3d09847a5
:103ea800f1e700201cbc90469946a246f0bd0120cf
:103eb8004042f7e701204042f4e701204042f1e7a1
:0c3ec80034050020d13f0000a55a000086
:020000040000fa
:103ed40030b583b005000c00002301934b78062b0a
:103ee40014d0082b5ad0002b3bd1bc214352037869
:103ef400db07c022805cbf3a02405200db0f134351
:103f04006b542b00bc33019302204be0c068cb7888
:103f1400072b57d89b002c4ad3589f462a780e2348
:103f24001340022b03d003680193122032e0c368cc
:103f3400019312202ee08b78ae22aa5c9a4210d90b
:103f4400b022aa589b009b58002b0ad001939a7860
:103f5400d8780002104325e02a7870231340102bf0
:103f64002ed00121280002f0c4f929e02a78702318
:103f74001340102bf5d1023b1a40022a03d0436aa6
:103f840001930a2006e0036a01930a2002e001aad1
:103f940001f040f90199002905d1e2e70300ad33ae
:103fa400019301200199a279e3791b0213431a1c9e
:103fb4009bb2834200d9021c92b2280002f04efa4e
:0c3fc40003b030bd0020e5e7f8700000fd
:020000040000fa
:103fd00070b505000823c3569a1c41d04469022bd2
:103fe00007d04268002a42d1c423e25400210f26a0
:103ff0001ee0c233e35c002b0ed02300c433db6829
:10400000002b09d0d822a558ab422ad02200c432b6
:10401000908800220c219847c4230122e2542300f7
:10402000c433284ada60228b9a80210024310e267c
:104030002300c433db68d822a558ab423cd0220011
:10404000c43290880a00310098478c234022e25005
:1040500022008832e0695833e3589b6b002198476f
:1040600070bddc23e25800210c20a847d4e7c4230c
:10407000e35c002b1dd02300c43358789b78834227
:1040800002d800210d26d3e7cc23e35818182100cd
:10409000243103f02ffa2200c4326b6851785b1888
:1040a000dbb253709278002101269a42c0d80c36b8
:1040b000bee700210126bbe7dc23e2583000a84719
:0840c000c3e7c0468d34000087
:020000040000fa
:1040c800f0b5de4657464e464546e0b583b0050096
:1040d8000e0017000caa127893465a1ad1175218d4
:1040e8004a4091463a1ad11752184a409246914589
:1040f80004dd3a001f00130035000600bd4205dd4f
:1041080032001e0013002a003d0017007a1bd1b2ae
:1041180001919a1bd01712184240d2b290464c080f
:1041280001220092b34235dd3b004f4699460ee02e
:10413800e9b2f0b2002202f0f7f94346e41aa3b25a
:104148001cb2002c1ddb01352db24d452bdc57452b
:1041580008dd5b46002bebd0e9b2f0b2012202f099
:10416800e3f9eae75b46002b05d0f1b2e8b2012299
:1041780002f0daf9e1e7f1b2e8b2002202f0d4f98c
:10418800dbe7009a9446664436b2019a9446634443
:104198001cb2d8e7af4206db01235b4200933b0029
:1041a8004f469946d3e703b03cbc90469946a24691
:0441b800ab46f0bd65
:020000040000fa
:1041bc00f8b5ce46474680b50500431c40d0ec22ee
:1041cc004243344b9b181b7a5bb2002b38ddec223c
:1041dc004243304b9b18d4331b78002b17d0012b48
:1041ec002ed1ec2242432b4b9b181b8a9846002b5a
:1041fc0026d0284bec224243d75c3f077f0f9b18fd
:10420c001a00ad32127891465e69002424e0ec234a
:10421c004343204ce4182300e8331888043b1b6804
:10422c001b680f219847e061431c09d0ec236b43ba
:10423c00184ded182b00d43301221a7002232b7267
:10424c000cbc90469946f8bdb0889847103601349e
:10425c00e4b2a3b24345f3d233783b42f6d0737841
:10426c004b45f3d1ec226a430a4b9b18da780723af
:10427c001340052bead1ec226a43064b9b185b7862
:10428c005b07e3d4f368002be0d0db68002bdbd1b9
:08429c00dce7c04634050020f8
:020000040000fa
:1042a400f0b5334b83b042009a4252d9002853db15
:1042b4003049031c8a4249d802022f4b110e5d5c1f
:1042c400fa2189058c46520e9b180133ff331c7862
:1042d4002d04240401a96544644402f093fe019f63
:1042e400061cfb073dd4291c281c00f0dbfb011c29
:1042f400301c03f09bf9211c00f0d4fb291cfef7b1
:10430400d6fd011c051c00f0cdfb011c301c03f084
:104314008df9211c00f0c6fb011c281cfef7c7fd0b
:10432400011c051c00f0befb011c301c03f07ef9cf
:10433400211c00f0b7fbfc0fe419011c6410281cbd
:10434400fef7b5fd210002f02ffc031c181c03b07e
:10435400f0bdc00fc307f9e72122084b1a60084bd0
:10436400f4e70121494202f01ffc0137061cbae7b9
:10437400ffffff00fffffffe902a000098090020c6
:044384000000c07ff6
:020000040000fa
:10438800f0b5060085b00f0015001c008b4265d8fb
:1043980001d1824262d82100280003f03ff8390099
:1043a8000090300003f03af8009b21001b1a1a0015
:1043b8002800039303f026f800900191019bbb426b
:1043c80046d802d1009bb34242d8009b019c039a75
:1043d80001200021f61aa74103f014f8039b002bd3
:1043e8002fd0019b009adb0754081c43019b5d08f2
:1043f800039b9c46bd422ed801d1b4422bd8320033
:104408003b00121bab41012692185b410027b618ee
:104418005f4101235b429c446346002bead180192b
:104428007941039a04000d003000390002f0deffe4
:10443800039a06000f0002f0e5ff241a8d412000c0
:1044480029000a9b002b01d01e605f6005b0f0bdfb
:1044580000200021c2e7b6197f41dae700200021d9
:02446800efe77c
:020000040000fa
:02446a00704799
:020000040000fa
:10446c00304a06231375304900238b610b612f49a9
:10447c00012048710730887113831100920dcb68ad
:10448c001342fcd02a4b1b689b0e9b02802292008d
:10449c001343244ad3611100920dcb681342fcd014
:1044ac00204b02221a831900d201cb681342fcd094
:1044bc00204b214a5a62190008224b681a42fcd13f
:1044cc001c4b1e4a1a62190004224b681a42fcd17a
:1044dc00184a90234021d1501000503140224358ab
:1044ec001a42fcd0134ac8234021d1501000883105
:1044fc00402243581a42fcd00e4aec234021d150a2
:10450c001000ac31402243581a42fcd0094af8231f
:10451c004021d1501000b831402243581a42fcd0ef
:10452c007047c046000c00400010004000040040e2
:10453c0020608000001800400601080007010100ff
:020000040000fa
:10454c00264949493203017f01033f4040403f1f48
:10455c002040201f3f4038403f631408146303047d
:10456c007804036159494d43007f414141020408dd
:10457c001020004141417f040201020440404040b0
:10458c0040000307080020545478407f28444438e6
:10459c003844444428384444287f38545454180030
:1045ac00087e090218a4a49c787f080404780044af
:1045bc007d40002040403d007f1028440000417f9a
:1045cc0040007c047804787c080404783844444423
:1045dc0038fc1824241818242418fc7c080404081b
:1045ec00485454542404043f44243c4040207c1c34
:1045fc002040201c3c4030403c44281028444c9027
:10460c0090907c4464544c44000836410000007780
:0c461c0000000041360800020102040208
:020000040000fa
:1046280070b504009a22520042432e4b9b18203347
:104638001b785bb2002b0fdd9a2252004243294bb4
:104648009b189b6b002b07d09a2252004243254ba4
:104658009b185d7a012d00d070bd9a22520042430a
:10466800204b9b181b6c002b1ed0984706009a22e3
:10467800520062431b4b9b183c331b788342ebd0a0
:1046880001281ad09a2252006243164b9b181b79b4
:10469800002b1fd1134dad1800220921686bab6b9d
:1046a800984701232b7115e09a22520042430d4b83
:1046b8009b183c331b78012bced09a235b006343b5
:1046c800084ef61800220821706bb36b9847002338
:1046d80033712e009a235b006343024ce4183c3488
:0846e8002670b9e70004002070
:020000040000fa
:1046f000f0b40125ed070c005c402c40a446ae0a46
:104700004c18df18f4423dd2f74245d2640d4cd02c
:104710007f0d3cd0e41bc9022943cf0adb022b43a7
:10472000db0a0600b61a9f4104d2013cb6197f414c
:10473000b6185f416812800d241838dd00188442d5
:1047400025d8e80c0021b6197f41b61a9f4103d342
:1047500040414941f7d304e0b6185f410018494190
:10476000f1d32405b6197f41b61a9f4105d33743cb
:10477000c20717430022012f504161416246114395
:10478000f0bc70470cd100280ad1f74208d20020b3
:10479000c143490d0905f1e7002a01d1f74206d0ce
:1047a0000020c143090dc904eae77f0df8d00020bd
:0447b0006146e5e792
:020000040000fa
:1047b400f0b5ce46474680b583b006002b4b9846ed
:1047c400ff270de002232b776888f3685b682a696a
:1047d400e968984742e02a002100300001f0d2fd48
:1047e400b56a002d3cd02b7f012b39d1ac69220a4c
:1047f4003a4013019b1a9b00434422003a40540060
:10480400a418e400db69e41873696269934207d071
:1048140020001430f3685b69002198476369736171
:104824002b7d022bced0042b0ed102232b776b6869
:104834009c462a69e9686888ab680093f3689b68ba
:1048440099466346c84709e0012b09d102232b7717
:104854006888f3681b68aa68696898470028bad012
:1048640003b00cbc90469946f0bdc04650080020e9
:020000040000fa
:1048740010b588293cd015dc81294dd003dc802972
:104884004ad0002010bd822911d08429f9d1196899
:10489400002a26d00a1d1a6000228b5e0360db17f3
:1048a400436011e0a02930d010dc9029e9d11968c7
:1048b4000724002a2ed00919a1430a0008321a60dd
:1048c4000b684c68036044600120dbe7c02901d019
:1048d400f029d6d11a68111d1960136803600023ea
:1048e400dee70c1d1c600b689bb203604260ebe7c3
:1048f4001968002a04d00a1d1a600023cb56cde79c
:104904000c1d1c600b68dbb2efe71a68111d1960ff
:104914001368c3e70731cfe71968002a03d00a1ddb
:0e4924001a600b68bae70c1d1c600b68dde71b
:020000040000fa
:02493200fee79e
:020000040000fa
:1049340053544f4b455320504f4c4152494d4554cd
:10494400455200004c61626f7261746f72696f202e
:10495400646500004d61746572696120556c747200
:104964006166722563610000496e737469747574bd
:104974006f20646520462563736963612c00000021
:10498400554e414d2c204d25637869636f2e0000f0
:1049940055534220636f6e6e65637465642e2e2ecc
:1049a4000000000073303d252e3034676d57000041
:1049b40073313d252e3034676d57000073323d2529
:1049c4002e3034676d57000073333d252e30346725
:1049d4006d57000025633d25302e3467000000002c
:0c49e40025633d25302e3467256300005c
:020000040000fa
:1049f00030b583b00d0007a90c78002810d12849e4
:104a0000506888621068c86292680a6300224a632c
:104a10008a63ca63234a0a64042c03d0052c13d08a
:104a200003b030bd1e4a1560089a5279022a04d09c
:104a30000a2af5d11a4a1371f2e7089a9279022ae2
:104a4000eed1174a9374ebe7089b9a78d409d9788a
:104a500003230b40022b08d0032be1d163001c1968
:104a6000640014340e4b1c1905e0013463001c195a
:104a700064000b4b1c19089b1b79089949790902a2
:104a8000194322706180089bdb789b079b0f009184
:104a90000021280002f083f901232371c0e7c046fa
:084aa0008c07002080090020b2
:020000040000fa
:104aa80030b405004d400124e407254042004b0086
:104ab800120e32d01b0e3cd0ff2a33d0ff2b3fd032
:104ac800d21800022043000a09022143090ac4b28d
:104ad8004c43000ac3b24b43000a4843210a5b18ff
:104ae800190a091801d44900013a080a7f3a2adb51
:104af800fe2a0fd2d2051c43240601d001242143eb
:104b0800c9b280295041802901d14008400028437a
:104b180030bc7047ff20c005f9e71b0eff2b0ad0f9
:104b28002800f5e7400206d1ff2bf3d1490202d154
:104b3800f0e7ff2af4d17f2000010c300005e7e7f9
:104b48004902f8d1e6e743020132e9d15b120233a8
:064b5800e6d9d805e4e7f0
:020000040000fa
:024b5e00fee770
:020000040000fa
:104b60004b005b0d264af0b55c1e944238d8254aae
:104b70009e1825d4332e22dc234a9b1827d4234a9f
:104b8000da400700214b9743f3403c000f000240fe
:104b90009f4319403d000a430fd0002f0dda202318
:104ba0005b42f11824d480204003c84002008021d9
:104bb0004903f1400b00a4185d4120002900f0bd1d
:104bc0000020002901db0021f9e71149f7e7202245
:104bd0000e4b921b934001225242f2401a43d0e7ff
:104be000002becd10022c90fcb0710001900e6e71b
:104bf00020218020891b400388400200d7e7c0465f
:104c0000fd07000001fcffffe1fbffffffff0f00be
:044c10000000f0bff1
:020000040000fa
:104c1400f0b54b6889b005930b6807009c46079371
:104c2400cb680c008e68049310685168cd0f44d093
:104c34000b000200002150429941059b002b08db28
:104c44000222634693430793002d02d1079b5a0720
:104c54002ad5731e07aa02920a22009301920b001e
:104c64000200200000f01bfd002d02d1079b5a0713
:104c74001ed501382d23002d00d1023b049a135474
:104c840023695a1e049b121a1918079b38000093b3
:104c9400330000f0c7fc7b68db0503d563689842ea
:104ca40000da180009b0f0bd1b07db0ff31ad1e7d7
:104cb4001b07e5d501382023e0e7059b002bbfda6d
:024cc400c4e743
:020000040000fa
:024cc600fee707
:020000040000fa
:104cc800002941d010b4041c4c40a4460123002202
:104cd800002900d54942002800d5404288422cd3fb
:104ce80001242407a14204d2814202d209011b01f6
:104cf800f8e7e400a14204d2814202d249005b00f5
:104d0800f8e7884201d3401a1a434c08a04202d35c
:104d1800001b5c0822438c08a04202d3001b9c089d
:104d28002243cc08a04202d3001bdc0822430028ff
:104d380003d01b0901d00909e3e7101c6446002cc5
:104d480000d5404210bc704701b5002002f0eefccf
:104d580002bdc0460029f7d003b5fff7b3ff0ebc6c
:084d68004243891a1847c046b6
:020000040000fa
:104d700070b505000c00431c41d0002942d0082327
:104d8000cb56012b41ddc378002b0dd1837b012b4a
:104d900002d07f20404270bd002383730a20285632
:104da00001f00afd060000e00026fe232372002326
:104db0006360e369002b0ed0a2699a61a369002b9e
:104dc00001d0e269da610023e361a361e368002bab
:104dd00001d020009847eb780020002bdbd1002e7b
:104de00009d0ab7a5ab2002a05db1f221a400123f0
:104df0009340074a13600123ab730020cbe77d206b
:104e00004042c8e77d204042c5e77d204042c2e7de
:044e100000e100e0dd
:020000040000fa
:104e140010b584b0244b1b78012b17d0002b05d080
:104e2400022b1ad0032b33d004b010bd0321002071
:104e3400fef750fe1c4b5860431cf5d000221b4962
:104e440001f012fd184b03221a70ede7164c206d89
:104e540000f054f903232370e6e7134b5422022194
:104e640099541a000c32586819000831029105212e
:104e740001912c3300930123373102f0a8f90a4938
:104e840054228b5c022bfcd0074b03221a70cbe715
:104e9400054a4c23d35c002bc6d013004c220021be
:104ea40099544b3a1a70bfe7e40600205971000088
:020000040000fa
:104eb40070b504000f230b4049b2022b2ed8421cbc
:104ec4002fd010339b00c3185d68091108231940c3
:104ed4006d18c378002b29d1837b012b02d07f204e
:104ee400404270bd002383730a20205601f062fc07
:104ef400060002214942280001f03affe378002b22
:104f040012d1002e1bd0a37a5ab2002a17db1f221b
:104f14001a40012393400c4a136010e07c20404265
:104f2400dfe77d204042dce70020dae70221494246
:104f3400280001f01dffe3780020002bd1d10123cc
:0c4f4400a3730020cde7c04600e100e0b0
:020000040000fa
:104f500030b405004d400124e407254042004b00d9
:104f6000120e26d01b0e34d0ff2a2dd0ff2b35d0a9
:104f7000d21a000220430902214343084908a00d28
:104f80005b1a02d2013a5b005b185b008b4200d3d4
:104f90005b1a4041f9d37f3222ddff2a06d2d205c7
:104fa000c91a8b425041284330bc7047ff20c005ce
:104fb000f9e71b0e03d0ff2b12d1490210d07f203e
:104fc00000010c300005efe74002f8d1ff2bedd1d6
:104fd000f5e7ff2aead14002f1d1e7e74902eed135
:044fe0002800e1e7dd
:020000040000fa
:104fe4004c5b00004c5b0000665b0000665b0000ed
:104ff400665b0000665b0000665b0000665b0000a9
:10500400665b0000665b0000665b0000665b000098
:10501400665b0000665b0000665b0000665b000088
:10502400665b0000665b0000665b0000665b000078
:10503400665b0000665b0000665b0000665b000068
:10504400665b0000665b0000665b0000665b000058
:10505400665b0000665b0000665b0000665b000048
:105064001c5b00002c5b00003c5b0000565b0000f6
:020000040000fa
:1050740070b504008569036b002b09d13533c35c1b
:105084000026012b01d0300070bd34330022c254fd
:105094002e78002e06d00420285601f08bfb3a23ec
:1050a400e054f0e702f02cfb06006868431c0dd1c5
:1050b400a868431c10d1e868431c13d12869431c19
:1050c40016d1300002f020fb0126dce740b201f0eb
:1050d40071fb3623e054ebe740b201f06bfb37235e
:1050e400e054e8e740b201f065fb3823e054e5e71b
:0c50f40040b201f05ffb3923e054e2e71a
:020000040000fa
:10510000f0b5ce46474680b585b003000f226a440d
:10511000002111701c495422022088540a000c32cc
:105120004868083100913c2102f0d2f81649542217
:105130008b5c022bfcd00526134f54240223994686
:1051400008239846b8443d004b463b557868434693
:10515000009301230f226a443c2102f0b9f82b5d31
:10516000022bfcd0013ef6b2002e04d0064b1b5d94
:10517000012be9d002e0044b04221a7005b00cbcec
:0c51800090469946f0bdc046e4060020b1
:020000040000fa
:10518c00002934d00123002210b488422cd30124ee
:10519c002407a14204d2814202d209011b01f8e783
:1051ac00e400a14204d2814202d249005b00f8e73c
:1051bc00884201d3401a1a434c08a04202d3001b68
:1051cc005c0822438c08a04202d3001b9c0822439b
:1051dc00cc08a04202d3001bdc082243002803d0d9
:1051ec001b0901d00909e3e7101c10bc704701b57d
:1051fc00002002f099fa02bd0029f8d003b5fff7a0
:0c520c00c1ff0ebc4243891a1847c0467f
:020000040000fa
:10521800f8b5ce46474680b50d0090468e78c469ed
:1052280027683b78023bdbb25a0891460022012be3
:1052380005d9007e01384946fff742fdc2b2002079
:10524800b24203d20cbc90469946f8bd002e03d159
:1052580043461f603878f5e72a796b791b021a43b1
:105268004b4698b20028edd07b88934211d0043782
:10527800012301339bb298420dd30237b91e098826
:105288009142f6d173439b001b594246136018782c
:0a529800d8e70123f6e70020d4e771
:020000040000fa
:0252a200704753
:020000040000fa
:1052a40070b50400431c02d00378002b00d170bdfc
:1052b400456a1021fdf7aafce378002b20d1a37bdb
:1052c400012bf4d10026a6730a20205601f072faad
:1052d400a671134bab82ae722b89012213432b812f
:1052e400e378002be3d1002816d0a37a5ab2002a1f
:1052f40012db1f221a40012393400a4a13600be079
:105304000023a371064aaa82ab722b89012213439c
:105314002b81e378002bcad10123a373c7e7c046ce
:08532400ff03000000e100e0be
:020000040000fa
:10532c0070b5040011795378002b14d1bc2543536c
:10533c00e433c3585b6bc069984701230340605d3d
:10534c0001229043184360552100bc3101322000ea
:10535c0001f080f870bd012b07d0032b14d00c2b5f
:10536c00f8d1012100f0c1fff4e79078d3781b024b
:10537c000343efd1e433e358db6ae069984700213b
:10538c00200000f0b2ffe5e79078d3781b020343ce
:10539c00e0d1e433e3589b6ae06998470021200090
:0653ac0000f0a3ffd6e7ac
:020000040000fa
:0253b200704742
:020000040000fa
:1053b40010b5082909d889001d4841588f4619009d
:1053c4000d311868072201f049f810bd591d1868fd
:1053d400072201f04bfef8e71178c907c80f197dc1
:1053e4000124a143014319751278022111401a7d49
:1053f400022082430a431a751868002100f079ffdd
:10540400e3e712889a841868002100f072ffdce751
:1054140020210120585452681a63d6e718680021e5
:1054240000f067ffd1e7212201219954cde7c0465e
:045434009c6f000069
:020000040000fa
:1054380070b5040085692b78002b0cd03a23c15c29
:105448000420285601f008ff236b002b02d13533c6
:105458000122e25470bd02f051f906006868431c4d
:105468000cd1a868431c0fd1e868431c12d12869e5
:10547800431c15d1300002f045f9e5e73623e15c1d
:1054880040b201f0e9feece73723e15c40b201f0fd
:10549800e3fee9e73823e15c40b201f0ddfee6e730
:0c54a8003923e15c40b201f0d7fee3e7dd
:020000040000fa
:1054b40010b50400431c09d09a2252004243194bf0
:1054c4009b1820331b785bb2022b00d010bd9a22ac
:1054d40052004243134b9b189b7a5ab2002a07dbb3
:1054e4001f221a40012393400f49c02252008b50bf
:1054f4009a22520062430b4b9b180122da705b7aaa
:10550400012b07d09a235b006343064ce418002365
:10551400e370dbe79a2040006043024bc018fbf7be
:0c5524009bf9efe70004002000e100e02c
:020000040000fa
:10553000f0b5de464f464646c0b586b00490b4236b
:10554000c458a278e3781b021343994628d000265a
:1055500000239846059300250ee0a0780590e37897
:105560009846049900f0a2fe060008e02378ed18a2
:10557000adb2e418a94513d96778042fedd0002ef9
:10558000f4d0f368002bf1d0b268b0880294019790
:10559000414600911b689b46059b0499d847e5e767
:0c55a00006b01cbc90469946a346f0bd26
:020000040000fa
:1055ac0070b50d008ab004002022002102a801f081
:1055bc00a5ff2b78181e1ad06a78002a19d01f2044
:1055cc0001212b78002b25d00e005a0903409e4058
:1055dc003300920002aeb65801353343019602ae49
:1055ec00b350eee7013002789a42fbd0001b0ab0b0
:1055fc0070bd2000f7e701300378002bf6d00e00c9
:10560c005a092b409e403300920002aeb2581a4207
:0c561c00f1d1ebe720001f250121ede794
:020000040000fa
:10562800f0b51d00012389b014000e9a06001a4037
:105638000391029201d1a5420ad8220003993000b1
:1056480001f071fca54203d82500280009b0f0bd7f
:105658002f1b01973a00102f00d91022202104a8ef
:1056680001f04eff019b0f2b0ed80f2204a93a40e0
:10567800300001f058fc029b002be6d12200039970
:10568800300001f050fce0e7102204a9300001f0de
:0a5698004afc019b103b0193e4e77c
:020000040000fa
:1056a200f7b5040019000a9fe368666800933b6837
:1056b200100001932369013b1c00002e00da012631
:1056c2000022009dea5435000123002c03dc002b4c
:1056d2001cd02000febd02000a4309d1002d07dcc8
:1056e200089a921b5219002af1dd019a9207eed50f
:1056f200099b099adb1701f000f88c460099013cde
:10570200130030320a55013d6146dee710233a6844
:065712009a433a60dde756
:020000040000fa
:1057180070b50d0009788ab00400002902d06b78b2
:10572800002b05d1200000f01dfb001b0ab070bd46
:105738000021202202a801f0e3fe1f2001212b787e
:10574800002b1cd00e005a0903409e4033009200e3
:1057580002aeb65801353343019602aeb350eee7b8
:1057680001300378002be0d00e005a092b409e40f0
:105778003300920002aeb2581a42f1d0d5e72000a9
:065788001f250121ede7e1
:020000040000fa
:1057900010b5174b06225a6001f04ffa00f06cf872
:1057a000fef764fe01f080ff01f0fafefef75dfef9
:1057b00000f048fa01f02afd00f02cfd00f03eff59
:1057c0000c49002000f038f90b4c20600b490020f8
:1057d000fef702fb60600a490020fdf735fda0607e
:1057e00000f02afc01f07eff00f0f0fa10bdc04688
:1057f000004000417c720000740900206c6e0000c3
:04580000546f0000e1
:020000040000fa
:1058040010b50a2807d88000174b1b589f46174a23
:1058140022230121d15410bd002001f0abfb134b16
:1058240000221a73f7e70b78012bf4d1012001f061
:10583400a1fb0e4c22000e49002001f06bfc012359
:105844002373e8e7094b186801f0eefbe3e7074b25
:10585400186801f044fb002001f08cfbdbe700201a
:1058640001f088fbd7e7c0461c6d00008c080020bf
:04587400b553000028
:020000040000fa
